{
  "contractName": "hello",
  "abi": [
    {
      "constant": true,
      "inputs": [],
      "name": "printHello",
      "outputs": [
        {
          "name": "",
          "type": "string"
        }
      ],
      "payable": false,
      "stateMutability": "pure",
      "type": "function"
    }
  ],
  "bytecode": "0x608060405234801561001057600080fd5b50610139806100206000396000f3fe60806040526004361061003b576000357c010000000000000000000000000000000000000000000000000000000090048063cf2cc57614610040575b600080fd5b34801561004c57600080fd5b506100556100d0565b6040518080602001828103825283818151815260200191508051906020019080838360005b8381101561009557808201518184015260208101905061007a565b50505050905090810190601f1680156100c25780820380516001836020036101000a031916815260200191505b509250505060405180910390f35b60606040805190810160405280600c81526020017f48656c6c6f20776f726c6421000000000000000000000000000000000000000081525090509056fea165627a7a72305820f592a4322459f5fc5c58e9b3396210c12cad5515910eedf79dfa2e4c8502e20e0029",
  "source": "// SPDX-License-Identifier: UNLICENSED\npragma solidity <0.9.0;\ncontract hello{\n function printHello () pure public returns (string memory){\n return \"Hello world!\";\n }\n}",
  "sourcePath": "/Users/seungyeon/Desktop/ensor_server/mytruffleproject/contracts/hello.sol",
  "compiler": {
    "name": "solc",
    "version": "0.5.1+commit.c8a2cb62.Emscripten.clang"
  },
  "schemaVersion": "3.4.16",
  "updatedAt": "2023-09-10T04:01:04.245Z",
  "networkType": "ethereum",
  "devdoc": {
    "methods": {}
  },
  "userdoc": {
    "methods": {}
  }
}